{
  "_format": "hh-sol-artifact-1",
  "contractName": "Library",
  "sourceName": "contracts/Library.sol",
  "abi": [
    {
      "anonymous": false,
      "inputs": [
        {
          "indexed": true,
          "internalType": "uint256",
          "name": "bookId",
          "type": "uint256"
        },
        {
          "indexed": false,
          "internalType": "string",
          "name": "title",
          "type": "string"
        },
        {
          "indexed": false,
          "internalType": "string",
          "name": "author",
          "type": "string"
        },
        {
          "indexed": false,
          "internalType": "string",
          "name": "cid",
          "type": "string"
        },
        {
          "indexed": true,
          "internalType": "address",
          "name": "uploader",
          "type": "address"
        }
      ],
      "name": "BookAdded",
      "type": "event"
    },
    {
      "inputs": [
        {
          "internalType": "string",
          "name": "_title",
          "type": "string"
        },
        {
          "internalType": "string",
          "name": "_author",
          "type": "string"
        },
        {
          "internalType": "string",
          "name": "_cid",
          "type": "string"
        }
      ],
      "name": "addBook",
      "outputs": [],
      "stateMutability": "nonpayable",
      "type": "function"
    },
    {
      "inputs": [],
      "name": "bookCount",
      "outputs": [
        {
          "internalType": "uint256",
          "name": "",
          "type": "uint256"
        }
      ],
      "stateMutability": "view",
      "type": "function"
    },
    {
      "inputs": [
        {
          "internalType": "uint256",
          "name": "",
          "type": "uint256"
        }
      ],
      "name": "books",
      "outputs": [
        {
          "internalType": "string",
          "name": "title",
          "type": "string"
        },
        {
          "internalType": "string",
          "name": "author",
          "type": "string"
        },
        {
          "internalType": "string",
          "name": "cid",
          "type": "string"
        },
        {
          "internalType": "address",
          "name": "uploader",
          "type": "address"
        }
      ],
      "stateMutability": "view",
      "type": "function"
    },
    {
      "inputs": [
        {
          "internalType": "uint256",
          "name": "_bookId",
          "type": "uint256"
        }
      ],
      "name": "getBook",
      "outputs": [
        {
          "internalType": "string",
          "name": "",
          "type": "string"
        },
        {
          "internalType": "string",
          "name": "",
          "type": "string"
        },
        {
          "internalType": "string",
          "name": "",
          "type": "string"
        },
        {
          "internalType": "address",
          "name": "",
          "type": "address"
        }
      ],
      "stateMutability": "view",
      "type": "function"
    }
  ],
  "bytecode": "0x6080604052348015600f57600080fd5b50610dfe8061001f6000396000f3fe608060405234801561001057600080fd5b506004361061004c5760003560e01c8063687440461461005157806369c4682614610084578063b905ad78146100a0578063e0ff5b8b146100be575b600080fd5b61006b600480360381019061006691906106c9565b6100f1565b60405161007b94939291906107c7565b60405180910390f35b61009e60048036038101906100999190610956565b6102d9565b005b6100a8610422565b6040516100b59190610a0c565b60405180910390f35b6100d860048036038101906100d391906106c9565b610428565b6040516100e894939291906107c7565b60405180910390f35b600060205280600052604060002060009150905080600001805461011490610a56565b80601f016020809104026020016040519081016040528092919081815260200182805461014090610a56565b801561018d5780601f106101625761010080835404028352916020019161018d565b820191906000526020600020905b81548152906001019060200180831161017057829003601f168201915b5050505050908060010180546101a290610a56565b80601f01602080910402602001604051908101604052809291908181526020018280546101ce90610a56565b801561021b5780601f106101f05761010080835404028352916020019161021b565b820191906000526020600020905b8154815290600101906020018083116101fe57829003601f168201915b50505050509080600201805461023090610a56565b80601f016020809104026020016040519081016040528092919081815260200182805461025c90610a56565b80156102a95780601f1061027e576101008083540402835291602001916102a9565b820191906000526020600020905b81548152906001019060200180831161028c57829003601f168201915b5050505050908060030160009054906101000a900473ffffffffffffffffffffffffffffffffffffffff16905084565b600160008154809291906102ec90610ab6565b919050555060405180608001604052808481526020018381526020018281526020013373ffffffffffffffffffffffffffffffffffffffff16815250600080600154815260200190815260200160002060008201518160000190816103519190610caa565b5060208201518160010190816103679190610caa565b50604082015181600201908161037d9190610caa565b5060608201518160030160006101000a81548173ffffffffffffffffffffffffffffffffffffffff021916908373ffffffffffffffffffffffffffffffffffffffff1602179055509050503373ffffffffffffffffffffffffffffffffffffffff166001547f82074938b6fedacfc281307322efd4a3bb28eb798619920f6d3ed235303358fd85858560405161041593929190610d7c565b60405180910390a3505050565b60015481565b606080606060008060008087815260200190815260200160002060405180608001604052908160008201805461045d90610a56565b80601f016020809104026020016040519081016040528092919081815260200182805461048990610a56565b80156104d65780601f106104ab576101008083540402835291602001916104d6565b820191906000526020600020905b8154815290600101906020018083116104b957829003601f168201915b505050505081526020016001820180546104ef90610a56565b80601f016020809104026020016040519081016040528092919081815260200182805461051b90610a56565b80156105685780601f1061053d57610100808354040283529160200191610568565b820191906000526020600020905b81548152906001019060200180831161054b57829003601f168201915b5050505050815260200160028201805461058190610a56565b80601f01602080910402602001604051908101604052809291908181526020018280546105ad90610a56565b80156105fa5780601f106105cf576101008083540402835291602001916105fa565b820191906000526020600020905b8154815290600101906020018083116105dd57829003601f168201915b505050505081526020016003820160009054906101000a900473ffffffffffffffffffffffffffffffffffffffff1673ffffffffffffffffffffffffffffffffffffffff1673ffffffffffffffffffffffffffffffffffffffff1681525050905080600001518160200151826040015183606001519450945094509450509193509193565b6000604051905090565b600080fd5b600080fd5b6000819050919050565b6106a681610693565b81146106b157600080fd5b50565b6000813590506106c38161069d565b92915050565b6000602082840312156106df576106de610689565b5b60006106ed848285016106b4565b91505092915050565b600081519050919050565b600082825260208201905092915050565b60005b83811015610730578082015181840152602081019050610715565b60008484015250505050565b6000601f19601f8301169050919050565b6000610758826106f6565b6107628185610701565b9350610772818560208601610712565b61077b8161073c565b840191505092915050565b600073ffffffffffffffffffffffffffffffffffffffff82169050919050565b60006107b182610786565b9050919050565b6107c1816107a6565b82525050565b600060808201905081810360008301526107e1818761074d565b905081810360208301526107f5818661074d565b90508181036040830152610809818561074d565b905061081860608301846107b8565b95945050505050565b600080fd5b600080fd5b7f4e487b7100000000000000000000000000000000000000000000000000000000600052604160045260246000fd5b6108638261073c565b810181811067ffffffffffffffff821117156108825761088161082b565b5b80604052505050565b600061089561067f565b90506108a1828261085a565b919050565b600067ffffffffffffffff8211156108c1576108c061082b565b5b6108ca8261073c565b9050602081019050919050565b82818337600083830152505050565b60006108f96108f4846108a6565b61088b565b90508281526020810184848401111561091557610914610826565b5b6109208482856108d7565b509392505050565b600082601f83011261093d5761093c610821565b5b813561094d8482602086016108e6565b91505092915050565b60008060006060848603121561096f5761096e610689565b5b600084013567ffffffffffffffff81111561098d5761098c61068e565b5b61099986828701610928565b935050602084013567ffffffffffffffff8111156109ba576109b961068e565b5b6109c686828701610928565b925050604084013567ffffffffffffffff8111156109e7576109e661068e565b5b6109f386828701610928565b9150509250925092565b610a0681610693565b82525050565b6000602082019050610a2160008301846109fd565b92915050565b7f4e487b7100000000000000000000000000000000000000000000000000000000600052602260045260246000fd5b60006002820490506001821680610a6e57607f821691505b602082108103610a8157610a80610a27565b5b50919050565b7f4e487b7100000000000000000000000000000000000000000000000000000000600052601160045260246000fd5b6000610ac182610693565b91507fffffffffffffffffffffffffffffffffffffffffffffffffffffffffffffffff8203610af357610af2610a87565b5b600182019050919050565b60008190508160005260206000209050919050565b60006020601f8301049050919050565b600082821b905092915050565b600060088302610b607fffffffffffffffffffffffffffffffffffffffffffffffffffffffffffffffff82610b23565b610b6a8683610b23565b95508019841693508086168417925050509392505050565b6000819050919050565b6000610ba7610ba2610b9d84610693565b610b82565b610693565b9050919050565b6000819050919050565b610bc183610b8c565b610bd5610bcd82610bae565b848454610b30565b825550505050565b600090565b610bea610bdd565b610bf5818484610bb8565b505050565b5b81811015610c1957610c0e600082610be2565b600181019050610bfb565b5050565b601f821115610c5e57610c2f81610afe565b610c3884610b13565b81016020851015610c47578190505b610c5b610c5385610b13565b830182610bfa565b50505b505050565b600082821c905092915050565b6000610c8160001984600802610c63565b1980831691505092915050565b6000610c9a8383610c70565b9150826002028217905092915050565b610cb3826106f6565b67ffffffffffffffff811115610ccc57610ccb61082b565b5b610cd68254610a56565b610ce1828285610c1d565b600060209050601f831160018114610d145760008415610d02578287015190505b610d0c8582610c8e565b865550610d74565b601f198416610d2286610afe565b60005b82811015610d4a57848901518255600182019150602085019450602081019050610d25565b86831015610d675784890151610d63601f891682610c70565b8355505b6001600288020188555050505b505050505050565b60006060820190508181036000830152610d96818661074d565b90508181036020830152610daa818561074d565b90508181036040830152610dbe818461074d565b905094935050505056fea2646970667358221220f7fc17495d14eb51bd381d76b51f70240b6f5ccd515316012d8ccaf63d0b9f6964736f6c634300081b0033",
  "linkReferences": {},
  "deployedLinkReferences": {}
}