{
  "contractName": "Library",
  "abi": [
    {
      "anonymous": false,
      "inputs": [
        {
          "indexed": true,
          "internalType": "uint256",
          "name": "bookId",
          "type": "uint256"
        },
        {
          "indexed": false,
          "internalType": "string",
          "name": "title",
          "type": "string"
        },
        {
          "indexed": false,
          "internalType": "string",
          "name": "author",
          "type": "string"
        },
        {
          "indexed": false,
          "internalType": "string",
          "name": "cid",
          "type": "string"
        },
        {
          "indexed": true,
          "internalType": "address",
          "name": "uploader",
          "type": "address"
        }
      ],
      "name": "BookAdded",
      "type": "event"
    },
    {
      "inputs": [],
      "name": "bookCount",
      "outputs": [
        {
          "internalType": "uint256",
          "name": "",
          "type": "uint256"
        }
      ],
      "stateMutability": "view",
      "type": "function",
      "constant": true
    },
    {
      "inputs": [
        {
          "internalType": "uint256",
          "name": "",
          "type": "uint256"
        }
      ],
      "name": "books",
      "outputs": [
        {
          "internalType": "string",
          "name": "title",
          "type": "string"
        },
        {
          "internalType": "string",
          "name": "author",
          "type": "string"
        },
        {
          "internalType": "string",
          "name": "cid",
          "type": "string"
        },
        {
          "internalType": "address",
          "name": "uploader",
          "type": "address"
        }
      ],
      "stateMutability": "view",
      "type": "function",
      "constant": true
    },
    {
      "inputs": [
        {
          "internalType": "string",
          "name": "_title",
          "type": "string"
        },
        {
          "internalType": "string",
          "name": "_author",
          "type": "string"
        },
        {
          "internalType": "string",
          "name": "_cid",
          "type": "string"
        }
      ],
      "name": "addBook",
      "outputs": [],
      "stateMutability": "nonpayable",
      "type": "function"
    },
    {
      "inputs": [
        {
          "internalType": "uint256",
          "name": "_bookId",
          "type": "uint256"
        }
      ],
      "name": "getBook",
      "outputs": [
        {
          "internalType": "string",
          "name": "",
          "type": "string"
        },
        {
          "internalType": "string",
          "name": "",
          "type": "string"
        },
        {
          "internalType": "string",
          "name": "",
          "type": "string"
        },
        {
          "internalType": "address",
          "name": "",
          "type": "address"
        }
      ],
      "stateMutability": "view",
      "type": "function",
      "constant": true
    }
  ],
  "bytecode": "0x608060405234801561000f575f80fd5b50610da38061001d5f395ff3fe608060405234801561000f575f80fd5b506004361061004a575f3560e01c8063687440461461004e57806369c4682614610081578063b905ad781461009d578063e0ff5b8b146100bb575b5f80fd5b610068600480360381019061006391906106a2565b6100ee565b6040516100789493929190610796565b60405180910390f35b61009b6004803603810190610096919061091a565b6102ca565b005b6100a561040d565b6040516100b291906109cd565b60405180910390f35b6100d560048036038101906100d091906106a2565b610413565b6040516100e59493929190610796565b60405180910390f35b5f602052805f5260405f205f91509050805f01805461010c90610a13565b80601f016020809104026020016040519081016040528092919081815260200182805461013890610a13565b80156101835780601f1061015a57610100808354040283529160200191610183565b820191905f5260205f20905b81548152906001019060200180831161016657829003601f168201915b50505050509080600101805461019890610a13565b80601f01602080910402602001604051908101604052809291908181526020018280546101c490610a13565b801561020f5780601f106101e65761010080835404028352916020019161020f565b820191905f5260205f20905b8154815290600101906020018083116101f257829003601f168201915b50505050509080600201805461022490610a13565b80601f016020809104026020016040519081016040528092919081815260200182805461025090610a13565b801561029b5780601f106102725761010080835404028352916020019161029b565b820191905f5260205f20905b81548152906001019060200180831161027e57829003601f168201915b505050505090806003015f9054906101000a900473ffffffffffffffffffffffffffffffffffffffff16905084565b60015f8154809291906102dc90610a70565b919050555060405180608001604052808481526020018381526020018281526020013373ffffffffffffffffffffffffffffffffffffffff168152505f8060015481526020019081526020015f205f820151815f01908161033d9190610c54565b5060208201518160010190816103539190610c54565b5060408201518160020190816103699190610c54565b506060820151816003015f6101000a81548173ffffffffffffffffffffffffffffffffffffffff021916908373ffffffffffffffffffffffffffffffffffffffff1602179055509050503373ffffffffffffffffffffffffffffffffffffffff166001547f82074938b6fedacfc281307322efd4a3bb28eb798619920f6d3ed235303358fd85858560405161040093929190610d23565b60405180910390a3505050565b60015481565b60608060605f805f808781526020019081526020015f206040518060800160405290815f8201805461044490610a13565b80601f016020809104026020016040519081016040528092919081815260200182805461047090610a13565b80156104bb5780601f10610492576101008083540402835291602001916104bb565b820191905f5260205f20905b81548152906001019060200180831161049e57829003601f168201915b505050505081526020016001820180546104d490610a13565b80601f016020809104026020016040519081016040528092919081815260200182805461050090610a13565b801561054b5780601f106105225761010080835404028352916020019161054b565b820191905f5260205f20905b81548152906001019060200180831161052e57829003601f168201915b5050505050815260200160028201805461056490610a13565b80601f016020809104026020016040519081016040528092919081815260200182805461059090610a13565b80156105db5780601f106105b2576101008083540402835291602001916105db565b820191905f5260205f20905b8154815290600101906020018083116105be57829003601f168201915b50505050508152602001600382015f9054906101000a900473ffffffffffffffffffffffffffffffffffffffff1673ffffffffffffffffffffffffffffffffffffffff1673ffffffffffffffffffffffffffffffffffffffff16815250509050805f01518160200151826040015183606001519450945094509450509193509193565b5f604051905090565b5f80fd5b5f80fd5b5f819050919050565b6106818161066f565b811461068b575f80fd5b50565b5f8135905061069c81610678565b92915050565b5f602082840312156106b7576106b6610667565b5b5f6106c48482850161068e565b91505092915050565b5f81519050919050565b5f82825260208201905092915050565b5f5b838110156107045780820151818401526020810190506106e9565b5f8484015250505050565b5f601f19601f8301169050919050565b5f610729826106cd565b61073381856106d7565b93506107438185602086016106e7565b61074c8161070f565b840191505092915050565b5f73ffffffffffffffffffffffffffffffffffffffff82169050919050565b5f61078082610757565b9050919050565b61079081610776565b82525050565b5f6080820190508181035f8301526107ae818761071f565b905081810360208301526107c2818661071f565b905081810360408301526107d6818561071f565b90506107e56060830184610787565b95945050505050565b5f80fd5b5f80fd5b7f4e487b71000000000000000000000000000000000000000000000000000000005f52604160045260245ffd5b61082c8261070f565b810181811067ffffffffffffffff8211171561084b5761084a6107f6565b5b80604052505050565b5f61085d61065e565b90506108698282610823565b919050565b5f67ffffffffffffffff821115610888576108876107f6565b5b6108918261070f565b9050602081019050919050565b828183375f83830152505050565b5f6108be6108b98461086e565b610854565b9050828152602081018484840111156108da576108d96107f2565b5b6108e584828561089e565b509392505050565b5f82601f830112610901576109006107ee565b5b81356109118482602086016108ac565b91505092915050565b5f805f6060848603121561093157610930610667565b5b5f84013567ffffffffffffffff81111561094e5761094d61066b565b5b61095a868287016108ed565b935050602084013567ffffffffffffffff81111561097b5761097a61066b565b5b610987868287016108ed565b925050604084013567ffffffffffffffff8111156109a8576109a761066b565b5b6109b4868287016108ed565b9150509250925092565b6109c78161066f565b82525050565b5f6020820190506109e05f8301846109be565b92915050565b7f4e487b71000000000000000000000000000000000000000000000000000000005f52602260045260245ffd5b5f6002820490506001821680610a2a57607f821691505b602082108103610a3d57610a3c6109e6565b5b50919050565b7f4e487b71000000000000000000000000000000000000000000000000000000005f52601160045260245ffd5b5f610a7a8261066f565b91507fffffffffffffffffffffffffffffffffffffffffffffffffffffffffffffffff8203610aac57610aab610a43565b5b600182019050919050565b5f819050815f5260205f209050919050565b5f6020601f8301049050919050565b5f82821b905092915050565b5f60088302610b137fffffffffffffffffffffffffffffffffffffffffffffffffffffffffffffffff82610ad8565b610b1d8683610ad8565b95508019841693508086168417925050509392505050565b5f819050919050565b5f610b58610b53610b4e8461066f565b610b35565b61066f565b9050919050565b5f819050919050565b610b7183610b3e565b610b85610b7d82610b5f565b848454610ae4565b825550505050565b5f90565b610b99610b8d565b610ba4818484610b68565b505050565b5b81811015610bc757610bbc5f82610b91565b600181019050610baa565b5050565b601f821115610c0c57610bdd81610ab7565b610be684610ac9565b81016020851015610bf5578190505b610c09610c0185610ac9565b830182610ba9565b50505b505050565b5f82821c905092915050565b5f610c2c5f1984600802610c11565b1980831691505092915050565b5f610c448383610c1d565b9150826002028217905092915050565b610c5d826106cd565b67ffffffffffffffff811115610c7657610c756107f6565b5b610c808254610a13565b610c8b828285610bcb565b5f60209050601f831160018114610cbc575f8415610caa578287015190505b610cb48582610c39565b865550610d1b565b601f198416610cca86610ab7565b5f5b82811015610cf157848901518255600182019150602085019450602081019050610ccc565b86831015610d0e5784890151610d0a601f891682610c1d565b8355505b6001600288020188555050505b505050505050565b5f6060820190508181035f830152610d3b818661071f565b90508181036020830152610d4f818561071f565b90508181036040830152610d63818461071f565b905094935050505056fea26469706673582212205061e080e70d1917b7c28b207cd28fcdeb6d400fd0fc803480f8ecbc72bdf76564736f6c63430008150033",
  "immutableReferences": {},
  "source": "// SPDX-License-Identifier: MIT\npragma solidity ^0.8.0;\n\ncontract Library {\n    struct Book {\n        string title;\n        string author;\n        string cid;\n        address uploader;\n    }\n\n    mapping(uint256 => Book) public books;\n    uint256 public bookCount;\n\n    event BookAdded(uint256 indexed bookId, string title, string author, string cid, address indexed uploader);\n\n    function addBook(string memory _title, string memory _author, string memory _cid) public {\n        bookCount++;\n        books[bookCount] = Book(_title, _author, _cid, msg.sender);\n        emit BookAdded(bookCount, _title, _author, _cid, msg.sender);\n    }\n\n    function getBook(uint256 _bookId) public view returns (string memory, string memory, string memory, address) {\n        Book memory book = books[_bookId];\n        return (book.title, book.author, book.cid, book.uploader);\n    }\n}\n",
  "sourcePath": "/Users/liurunsheng/Desktop/Course/COMP4651/project/my-ipfs-library/contracts/Library.sol",
  "compiler": {
    "name": "solc",
    "version": "0.8.21+commit.d9974bed.Emscripten.clang"
  },
  "schemaVersion": "3.4.16",
  "updatedAt": "2024-11-02T12:46:14.247Z",
  "networkType": "ethereum",
  "devdoc": {
    "kind": "dev",
    "methods": {},
    "version": 1
  },
  "userdoc": {
    "kind": "user",
    "methods": {},
    "version": 1
  }
}